:020000040000FA
:0600000000000EEF00F00D
:020006000000F8
:0400080004EF00F011
:080018000CEF00F009D88B7415
:100020006AD8AF0EE8CF03F08AEC00F06BD8F7D7B0
:100030000E0E936E000E8A6E900E946E800E8B6E76
:100040000F0E9A6E99929994000EF26E080ED56E6C
:100050009E0ED76E580ED66EFA0E026ED58E0CD846
:1000600051D8010EF76E5C0EF66E24D8010EF76EB5
:10007000640EF66E1FD812000A0E016E43D80106F8
:10008000FDE19092010EF76E400EF66E080090842E
:10009000F5CF91FF909436D89084F538916E909476
:1000A00031D80B00F552F3E11200210E016E01066A
:1000B000FEE1120090920800F55201E10B009084DD
:1000C000F5CF91FF90949084F538916E9094EDDF88
:1000D00090820B00F552F3E1120090929084EFCFE2
:1000E00091FF90949084EF38916E9094DEDF90822F
:1000F000EC50F4E112008A88020603E1FA0E026E67
:100100008A981200F2A4FED79E0ED76E580ED66EB5
:10011000F2941200010EF76E480EF66ECBDF00EE81
:100120000CF0E86A0332E8363009ED6EE950040855
:10013000F8E100EE04F0C00E046E0D6ACEDF12008E
:10014000333228010C06000080425954453D2020DE
:100150002000802020202020202020008048656C66
:0C0160006C6F0000C0576F726C642100CF
:020000040030CA
:010000001DE2
:0100010003FB
:010002006A93
:010003007C80
:010005008B6F
:00000001FF
