:020000040000FA
:0600000000000EEF00F00D
:020006000000F8
:0400080004EF00F011
:080018000CEF00F010D88A780B
:10002000FA0E006E71D858D86FD856D86DD854D8FB
:100030006BD852D869D850D80006F4E1F0D7000E3A
:10004000936E000E8A6E0F0E9A6E99929994640EBA
:10005000016E4ED80106FDE18A8A640E016E48D811
:100060000106FDE18A9A8A8C640E016E41D8010670
:10007000FDE18A9C8A8E640E016E3AD80106FDE18C
:100080008A9E11D8010EF76E480EF66E46D8010E04
:10009000F76E500EF66E41D8010EF76E560EF66EE4
:1000A0003CD8BDD712000A0E016E22D80106FDE130
:1000B0009092010EF76E400EF66E08009084F5CF18
:1000C00091FF909415D89084F538916E909410D843
:1000D0000B00F552F3E11200000ED56EFF0ED76E45
:1000E000060ED66ED58EF2A4FED7D59EF2941200DF
:1000F000000ED56ECF0ED76E2C0ED66ED58EF2A416
:10010000FED7D59EF294120083A605D002B012004D
:1001100002808A7E12000290120090920800F5522E
:1001200001E10B009084F5CF91FF90949084F53815
:10013000916E9094D1DF90820B00F552F3E11200A2
:10014000333228010C06000082424A454C4C4100E3
:0A015000C050573D0000C66D73005B
:020000040030CA
:010000001DE2
:0100010003FB
:010002006A93
:010003007C80
:010005008A70
:00000001FF
