:020000040000FA
:0600000000000EEF00F00D
:020006000000F8
:0400080004EF00F011
:080018000CEF00F010D88A780B
:10002000FA0E006E6CD853D86AD851D868D84FD819
:1000300066D84DD864D84BD80006F4E1F0D7000E4E
:10004000936E000E8A6E0F0E9A6E9992999434D820
:100050008A8A32D88A9A8A8C2FD88A9C8A8E2CD8FF
:100060008A9E11D8010EF76E3E0EF66E51D8010E23
:10007000F76E460EF66E4CD8010EF76E4C0EF66E0D
:1000800047D8CDD71200640E016E2DD80106FDE1D0
:100090009092010EF76E360EF66E08009084F5CF42
:1000A00091FF909420D89084F538916E90941BD84D
:1000B0000B00F552F3E11200050ED56E670ED76EF8
:1000C000690ED66ED58EF2A4FED7D59EF294000EA0
:1000D000D56EFF0ED76E060ED66ED58EF2A4FED765
:1000E000D59EF2941200000ED56EFB0ED76E1E0E3A
:1000F000D66ED58EF2A4FED7D59EF294120083A6BA
:1001000005D002B0120002808A7E12000290120016
:1001100090920800F55201E10B009084F5CF91FF19
:1001200090949084F538916E9094D1DF90820B007A
:10013000F552F3E11200333228010C06000082422E
:100140004A454C4C4100C050573D0000C66D7300FD
:020000040030CA
:010000001DE2
:0100010003FB
:010002006A93
:010003007C80
:010005008A70
:00000001FF
