:020000040000FA
:0600000000000EEF00F00D
:020006000000F8
:0400080004EF00F011
:080018000CEF00F00CD88A780F
:10002000FA0E006E3AD830D818D837D82DD815D84F
:100030000006F8E1F4D7000E936E0B0E956E000EDD
:100040008A6E17D88A8A15D88A9A8A8C12D88A9C7E
:100050008A8E0FD88A9EE3D71200000ED56EF60E58
:10006000D76E3C0ED66ED58EF2A4FED7D59EF294F6
:100070001200050ED56E670ED76E690ED66ED58E40
:10008000F2A4FED7D59EF29483A605D001B012004B
:1000900001808A7E12000190120083A002D08A8A19
:1000A00001D08A9A83A202D08A8C12008A9C120004
:020000040030CA
:010000001DE2
:0100010003FB
:010002006A93
:010003007C80
:010005008A70
:00000001FF
